:020000040800F2
:10000000B006002065010008F10C0008750C00081E
:1000100000000000000000000000000000000000E0
:10002000000000000000000000000000F50C0008C7
:100030000000000000000000F30C0008F70C0008AE
:1000400077010008770100087701000877010008B0
:1000500077010008770100087701000877010008A0
:100060007701000877010008770100087701000890
:100070007701000877010008770100087701000880
:100080007701000877010008770100087701000870
:100090007701000877010008770100087701000860
:1000A0007701000877010008770100087701000850
:1000B0007701000877010008770100087701000840
:1000C00000F002F800F03EF80CA030C80838241800
:1000D0002D18A246671EAB4654465D46AC4201D180
:1000E00000F030F87E460F3E0FCCB6460126334274
:1000F00000D0FB1AA246AB4633431847380E000027
:10010000580E0000103A02D378C878C1FAD85207C6
:1001100001D330C830C101D504680C6070470000BD
:100120000023002400250026103A01D378C1FBD813
:10013000520700D330C100D50B6070471FB51FBDFB
:1001400010B510BD00F0FAF81146FFF7F7FF00F008
:1001500071FE00F012F903B4FFF7F2FF03BC00F0E8
:1001600019F900000748804707480047FEE7FEE707
:10017000FEE7FEE7FEE7FEE704480549054A064BB1
:10018000704700004D0D0008C1000008B0000020BD
:10019000B0060020B0020020B002002001E004C040
:1001A000091F0429FBD28B0701D50280801CC907D7
:1001B00000D00270704700290BD0C30702D0027034
:1001C000401C491E022904D3830702D50280801CEB
:1001D000891EE3E70022EEE70022DFE700220309A1
:1001E0008B422CD3030A8B4211D300239C464EE052
:1001F00003460B433CD4002243088B4231D303090E
:100200008B421CD3030A8B4201D394463FE0C309BF
:100210008B4201D3CB01C01A524183098B4201D3D7
:100220008B01C01A524143098B4201D34B01C01AC2
:10023000524103098B4201D30B01C01A5241C3083A
:100240008B4201D3CB00C01A524183088B4201D3A9
:100250008B00C01A524143088B4201D34B00C01A95
:100260005241411A00D201465241104670475DE0AA
:10027000CA0F00D04942031000D34042534000222D
:100280009C4603098B422DD3030A8B4212D3FC22D6
:10029000890112BA030A8B420CD3890192118B4255
:1002A00008D3890192118B4204D389013AD092116B
:1002B00000E08909C3098B4201D3CB01C01A524126
:1002C00083098B4201D38B01C01A524143098B42EF
:1002D00001D34B01C01A524103098B4201D30B01D8
:1002E000C01A5241C3088B4201D3CB00C01A5241FD
:1002F00083088B4201D38B00C01A5241D9D24308E4
:100300008B4201D34B00C01A5241411A00D2014620
:10031000634652415B10104601D34042002B00D58A
:100320004942704763465B1000D3404201B500204C
:10033000C046C04602BD704770477047754600F022
:1003400025F8AE46050069465346C008C0008546FC
:1003500018B020B5FFF710FF60BC00274908B6466B
:100360000026C0C5C0C5C0C5C0C5C0C5C0C5C0C5C4
:10037000C0C5403D49008D46704710B50446C04693
:10038000C0462046FFF7E7FE10BD0000004870475A
:100390005000002001491820ABBEFEE726000200F5
:1003A0007047000070B5044600F0AEF80546601CCA
:1003B00002D004484068241800F0A6F8401BA04270
:1003C000FAD370BD00000020F0B5002388E00122C0
:1003D0009A409446144022007ED04C68022C01D0F2
:1003E000122C0CD1DC08A40027183C6A5D07ED0E26
:1003F0000F26AE40B4430E69AE4026433E62056808
:100400005E000324B4400F79A543BF07BF0FB74078
:100410002F4307604D68012D05D0022D03D0112D0B
:1004200001D0122D0ED18568CF68A543B7402F4368
:10043000876047686546AF430D79ED06ED0F9D4037
:100440003D434560C568A5438C68B4402C43C460F7
:100450004C68E40043D59D08244CAD002F193C6E38
:100460009D07EE0E0F25B540AC4305252D07A8428C
:1004700001D100250FE01E4DA84201D101250AE05F
:100480001C4DA84201D1022505E01B4DA84201D117
:10049000032500E00525B5402543144C3D66134D6A
:1004A00080352E684F689643FF0300D516432E60B3
:1004B0006E684F689643BF0300D516436E6025688B
:1004C0004E689543F60200D51543256065684E6871
:1004D0009543B60202D500E001E0154365605B1C60
:1004E0000A681446DA4000D071E7F0BD00180240F7
:1004F0000004005000080050000C0050002A01D0F9
:1005000081617047816270470148806870470000D0
:1005100000000020024881684268891881607047A5
:100520000000002010B5084800240168821511431E
:100530000160204600F00AF8002801D0012401E003
:1005400000F028F8204610BD0020024070B50F4E84
:10055000002471680546002915D07D20C000FFF7F2
:100560003DFE01460A480068FFF738FE00F03CFBFC
:10057000002808D1042D06D200222946401E00F092
:100580001FF8356000E00124204670BD0000002007
:100590000C00002008B509480168012211430160E0
:1005A00000681040009005484038C26B01040A43BF
:1005B000C263C06B0840009008BD000040100240BC
:1005C00010B500F015FC10BD10B50F4C21680322CA
:1005D0005202914301432160C11FFF39FA390ED104
:1005E0000A480621006848430949FFF7F7FD401C07
:1005F00002E0002805D0401E61694905F9D40020B9
:1006000010BD032010BD0000007000400C00002051
:1006100040420F00F8B50F46060043D04D4D286804
:100620004007400FB84213D22868C008C0003843C2
:100630002860FFF769FF044605E0FFF765FF011B2F
:100640004548814261D828684007400FB842F4D13C
:100650003068424C81070DD5400704D5A0680721BA
:1006600009030843A060A0680F2109028843B1680C
:100670000843A0603078C00732D0706801280AD0E3
:1006800002280BD000280FD03449403103280ED067
:10069000C969890704E02168890301E021688901AB
:1006A000002906DB0120F8BD21684905F8E7096A41
:1006B000EFE7A168C908C9000143A160FFF724FF63
:1006C000009006E0FFF720FF0099411A224881427E
:1006D0001BD8A068382108407168C9008842F1D150
:1006E00028684007400FB84217D91A480168C9085E
:1006F000C90039430160FFF707FF054607E0FFF730
:1007000003FF411B1448814201D90320F8BD114861
:1007100000684007400FB842F1D13078400706D555
:10072000A068072109038843F1680843A06000F02E
:100730001DF8A1683C2289091140094A515CC9068B
:10074000C90EC8400749086007480068FFF7FEFE69
:10075000F8BD000000200240881300000010024095
:10076000F40E00080C0000200000002010B5204C02
:10077000A068204A8006400F16D0A0688006410F6E
:10078000501001290FD0A1688906490F022912D003
:10079000A0688006400F042823D0A0688006400F80
:1007A000032821D0002010BD206801218004400FC3
:1007B0008140104612E0E1688B07E1689B0F490613
:1007C000490F491C032B00D01046FFF707FDE168D5
:1007D0004904490E4843E168490F491CFFF7FEFCF4
:1007E00010BD0120C00310BD7D20000210BD00001F
:1007F000001002400024F400F8B504007ED02078F8
:100800003827C007EF4D002846D0A868E96838406F
:100810008907890F102802D008280BD001E003298E
:1008200008D001206268000482420AD1296801438D
:10083000296015E0286880032ED560680028DDD087
:100840002AE0052301211B0489049A422A6802D167
:100850000A432A60EAE782432A60286888432860BE
:10086000606800280CD0FFF74FFE064604E0FFF753
:100870004BFE801B642873D828688003F7D50BE0F3
:10088000FFF742FE064604E0FFF73EFE801B6428A9
:10089000F1D828688003F7D42078800769D5A86844
:1008A000E96838408A070721920FC902102802D050
:1008B000002813D001E0022A10D0E068002846D0BA
:1008C000286888432169084328602868FF2101318E
:1008D00008432860FFF718FE06462CE02A685205F8
:1008E00002D5E268002A89D06A687F231B029A43F6
:1008F00063691B021A436A60002800E08DE00ED194
:1009000028688843216908432860286801218004F9
:10091000400F8140AC48FFF761FCAC490860AC482F
:100920000068FFF713FE002877D122E0FFF7ECFD07
:10093000801B02289FD828684005F7D568687F216A
:1009400009028843616909020843686011E0296867
:10095000FF20013081432960FFF7D6FD064605E000
:1009600098E0FFF7D1FD801B022884D82868400555
:10097000F7D42078974E00072ED5A8688006400F40
:1009800003280AD0A0690028306A16D00121084344
:100990003062FFF7B9FD07460BE0306A80071BD5D0
:1009A000A06900289FD017E0FFF7AEFDC01B02280A
:1009B00070D8306A8007F7D50EE0400840003062FA
:1009C000FFF7A2FD074604E0FFF79EFDC01B0228CB
:1009D00060D8306A8007F7D4207840076CD5A868C3
:1009E00000278006400F042818D0E86BC00008D408
:1009F000E96B012000070143E963E96B014001272E
:100A0000009175480168C90519D401688215114320
:100A10000160FFF779FD00900DE083E0F069800749
:100A20004AD5A06800287DD046E0FFF76DFD00990B
:100A3000401A02282ED868480068C005F5D5A1687C
:100A4000012910D004200529F16911D04908490075
:100A5000F161F1698143F161A068002816D0FFF7C8
:100A600053FD00900EE0F06901210843F061F3E7C7
:100A70000143F161F7E7FFF747FD0099411A574835
:100A800081426FD8F0698007F5D50EE0FFF73CFD95
:100A9000009007E066E0FFF737FD0099411A4F48E4
:100AA00081425FD8F0698007F5D4002F04D0E86B4D
:100AB000012109078843E863E06900287FD0A9681D
:100AC0008906490F022953D00126360602282868D4
:100AD0000DD0B0432860E86880088000E860E868CE
:100AE0003F490840E860FFF70FFD04463CE0B04393
:100AF0002860FFF709FD074604E0FFF705FDC01B6E
:100B000002282FD828688001F7D4616A206AA26A77
:100B10000843E16A120211430843216B0843616BE9
:100B2000084300E049E0E9682E4A11400843E860C4
:100B3000286830432860E868012109070843E86015
:100B4000FFF7E2FC044604E0FFF7DEFC001B02288E
:100B500008D828688001F7D531E0FFF7D5FC001BE5
:100B6000022801D90320F8BD28688001F5D426E0C9
:100B70000128F8D0E868226A8107890F91421CD1C8
:100B80007021626A0140914217D17F21A26A090255
:100B900001401202914210D11F214904E26A014032
:100BA00091420AD107214906226B0140914204D1AA
:100BB000400F616B4007884201D00120F8BD002042
:100BC000F8BD0000001002400024F4000C000020DA
:100BD0000000002040100240007000408813000018
:100BE000FFFFFEEE8C80C111094910B5401E8842FE
:100BF00001D9012010BD074C60610321081F00F0DE
:100C0000F7F80020A06107202061002010BD00003F
:100C1000FFFFFF0000E000E070B5040005D02546AE
:100C20002035687F002802D006E0012070BD00203A
:100C30002877204600F00AF802206877211D2068F6
:100C400000F08CF801206877002070BD08B50068BE
:100C50000649884208D106480268012189040A43EE
:100C6000026000680840009008BD00000048014094
:100C700040100240FEE70000F0B587B0142168463E
:100C8000FFF7AAFA1848416B012529434163416BDC
:100C900029400591426B02210A434263406B0526BD
:100CA000084036070590002208213046FFF726FC51
:100CB0000E4F002280213846FFF720FC0820002438
:100CC000009002946946019503943046FFF77CFB3F
:100CD0008020009002946946019503943846FFF7FE
:100CE00073FB07B0F0BD000000100240000400508C
:100CF00070477047704710B5FFF70CFC10BD10B57A
:100D000092B038216846FFF767FA002401200E945C
:100D10000F94109440021194FFF756FC02200090AB
:100D2000C00103904001049040200590079468465C
:100D3000FFF762FD07200E900F941094002111948C
:100D40000EA8FFF767FC12B010BD00000120024999
:100D5000C00688607047000000ED00E0F0B5026852
:100D60001D4B0124A4071D4D984203D0A04201D081
:100D7000A84203D17026B2434E683243184E194F31
:100D800098420DD0A0420BD0A84209D0164CA042E8
:100D900006D0B04204D0B84202D0144CA04204D1D4
:100DA00003242402A243CC6822438024A2434C693A
:100DB000224302608A68C2620A688262984206D050
:100DC000B04204D0B84202D0084A904201D1096929
:100DD000016301214161F0BD002C0140000400408D
:100DE0000040014000440140002000400048014014
:100DF0008307FF22DB0E9A408907090E99400028DD
:100E000008DB830809489B001B18186890430843B7
:100E1000186070470007000F0838830804489B00DB
:100E20001B18D86990430843D861704700E400E07C
:100E300000ED00E008B5FFF775FBFFF760FFFFF777
:100E40001BFF294827490160002141608160016141
:100E500063224161C2608161FFF7DEFE6420234F9F
:100E600000903846FFF79EFA214E0122802130463D
:100E7000FFF744FB002405252D0701220821284601
:100E8000FFF73CFB0098FFF78DFA00220821284667
:100E9000FFF734FB0098FFF785FA641C062CECDBA7
:100EA000002280213046FFF729FB3846FFF77AFA07
:100EB000012280213046FFF721FB00240122082176
:100EC0002846FFF71BFB0098FFF76CFA0022082169
:100ED0002846FFF713FB0098FFF764FA641C062C02
:100EE000ECDBDDE700480140100000208813000023
:100EF000000400500000000000000000000000009E
:100F000000000000000000000000000000000000E1
:100F100000000000010000000200000003000000CB
:100F200004000000060000000700000008000000A8
:100F300009000000540F000800000020100000000D
:100F400004010008640F000810000020A006000043
:100F50002001000804000000010000000000000063
:040F60000024F40075
:04000005080000C12E
:00000001FF
